{
  "transactions": [
    {
      "hash": "0xf22ab9e9b34891d45218f194283ba75f6e33bc185e8c490814b04867badf238c",
      "transactionType": "CREATE",
      "contractName": "Drainer",
      "contractAddress": "0x91c84c68b04af3b6cf479483c43297900fde9d32",
      "function": null,
      "arguments": [
        "0xd745c2e151093fFD1322c7C3E2023c43101AD99B"
      ],
      "transaction": {
        "from": "0x635cd35e832666bcf9932a7d95e894d7f4e900c0",
        "gas": "0x32a87",
        "value": "0x71afd498d0000",
        "input": "0x60806040526040516101de3803806101de8339818101604052602081101561002657600080fd5b5051600080546001600160a01b039092166001600160a01b0319909216919091179055610186806100586000396000f3fe60806040526004361061002d5760003560e01c80632d33ece7146100415780633a9e9f77146100565761003c565b3661003c5761003a610080565b005b600080fd5b34801561004d57600080fd5b5061003a610080565b34801561006257600080fd5b5061003a6004803603602081101561007957600080fd5b50356100e5565b6000805460015460408051632e1a7d4d60e01b81526004810192909252516001600160a01b0390921692632e1a7d4d9260248084019382900301818387803b1580156100cb57600080fd5b505af11580156100df573d6000803e3d6000fd5b50505050565b600080546040805162362a9560e01b81526001600160a01b03909216600483018190529051909262362a959285926024808301939282900301818588803b15801561012f57600080fd5b505af1158015610143573d6000803e3d6000fd5b505050600192909255505056fea264697066735822122084458c37ed0299ed5bcbe1371baffcec6e0b98b5e649ba8a6308eeb21fb63fb964736f6c63430006020033000000000000000000000000d745c2e151093ffd1322c7c3e2023c43101ad99b",
        "nonce": "0x8a",
        "chainId": "0xaa36a7"
      },
      "additionalContracts": [],
      "isFixedGasLimit": false
    },
    {
      "hash": "0x771734cda59852a4f902e54dd0037eb8635b838b3b8549ad857fe58cba903b20",
      "transactionType": "CALL",
      "contractName": "Drainer",
      "contractAddress": "0x91c84c68b04af3b6cf479483c43297900fde9d32",
      "function": "donateToInstance(uint256)",
      "arguments": [
        "1000000000000000"
      ],
      "transaction": {
        "from": "0x635cd35e832666bcf9932a7d95e894d7f4e900c0",
        "to": "0x91c84c68b04af3b6cf479483c43297900fde9d32",
        "gas": "0x19a27",
        "value": "0x0",
        "input": "0x3a9e9f7700000000000000000000000000000000000000000000000000038d7ea4c68000",
        "nonce": "0x8b",
        "chainId": "0xaa36a7"
      },
      "additionalContracts": [],
      "isFixedGasLimit": false
    },
    {
      "hash": "0xf8d10ab6afaab86aabd3a00599c3dac75d73b739c4af9c036ee093a933f574a8",
      "transactionType": "CALL",
      "contractName": "Drainer",
      "contractAddress": "0x91c84c68b04af3b6cf479483c43297900fde9d32",
      "function": "withdrawFromInstance()",
      "arguments": [],
      "transaction": {
        "from": "0x635cd35e832666bcf9932a7d95e894d7f4e900c0",
        "to": "0x91c84c68b04af3b6cf479483c43297900fde9d32",
        "gas": "0x8981",
        "value": "0x0",
        "input": "0x2d33ece7",
        "nonce": "0x8c",
        "chainId": "0xaa36a7"
      },
      "additionalContracts": [],
      "isFixedGasLimit": false
    }
  ],
  "receipts": [
    {
      "status": "0x1",
      "cumulativeGasUsed": "0x997b3a",
      "logs": [],
      "logsBloom": "0x00000000000000000000000000000000000000000000000000000000000000000000000000000000000000000000000000000000000000000000000000000000000000000000000000000000000000000000000000000000000000000000000000000000000000000000000000000000000000000000000000000000000000000000000000000000000000000000000000000000000000000000000000000000000000000000000000000000000000000000000000000000000000000000000000000000000000000000000000000000000000000000000000000000000000000000000000000000000000000000000000000000000000000000000000000000",
      "type": "0x2",
      "transactionHash": "0xf22ab9e9b34891d45218f194283ba75f6e33bc185e8c490814b04867badf238c",
      "transactionIndex": "0x2c",
      "blockHash": "0x631def153f1a79102128d2c63bba14a02ca194573a20330e44fbee4d090e875b",
      "blockNumber": "0x5ca509",
      "gasUsed": "0x274b0",
      "effectiveGasPrice": "0x172cb47",
      "from": "0x635cd35e832666bcf9932a7d95e894d7f4e900c0",
      "to": null,
      "contractAddress": "0x91c84c68b04af3b6cf479483c43297900fde9d32"
    },
    {
      "status": "0x1",
      "cumulativeGasUsed": "0x9aab1d",
      "logs": [],
      "logsBloom": "0x00000000000000000000000000000000000000000000000000000000000000000000000000000000000000000000000000000000000000000000000000000000000000000000000000000000000000000000000000000000000000000000000000000000000000000000000000000000000000000000000000000000000000000000000000000000000000000000000000000000000000000000000000000000000000000000000000000000000000000000000000000000000000000000000000000000000000000000000000000000000000000000000000000000000000000000000000000000000000000000000000000000000000000000000000000000",
      "type": "0x2",
      "transactionHash": "0x771734cda59852a4f902e54dd0037eb8635b838b3b8549ad857fe58cba903b20",
      "transactionIndex": "0x2d",
      "blockHash": "0x631def153f1a79102128d2c63bba14a02ca194573a20330e44fbee4d090e875b",
      "blockNumber": "0x5ca509",
      "gasUsed": "0x12fe3",
      "effectiveGasPrice": "0x172cb47",
      "from": "0x635cd35e832666bcf9932a7d95e894d7f4e900c0",
      "to": "0x91c84c68b04af3b6cf479483c43297900fde9d32",
      "contractAddress": null
    },
    {
      "status": "0x1",
      "cumulativeGasUsed": "0x9b22fb",
      "logs": [],
      "logsBloom": "0x00000000000000000000000000000000000000000000000000000000000000000000000000000000000000000000000000000000000000000000000000000000000000000000000000000000000000000000000000000000000000000000000000000000000000000000000000000000000000000000000000000000000000000000000000000000000000000000000000000000000000000000000000000000000000000000000000000000000000000000000000000000000000000000000000000000000000000000000000000000000000000000000000000000000000000000000000000000000000000000000000000000000000000000000000000000",
      "type": "0x2",
      "transactionHash": "0xf8d10ab6afaab86aabd3a00599c3dac75d73b739c4af9c036ee093a933f574a8",
      "transactionIndex": "0x2e",
      "blockHash": "0x631def153f1a79102128d2c63bba14a02ca194573a20330e44fbee4d090e875b",
      "blockNumber": "0x5ca509",
      "gasUsed": "0x77de",
      "effectiveGasPrice": "0x172cb47",
      "from": "0x635cd35e832666bcf9932a7d95e894d7f4e900c0",
      "to": "0x91c84c68b04af3b6cf479483c43297900fde9d32",
      "contractAddress": null
    }
  ],
  "libraries": [],
  "pending": [],
  "returns": {},
  "timestamp": 1717935340,
  "chain": 11155111,
  "commit": "b49a339"
}