{
  "transactions": [
    {
      "hash": "0xa1f3132d4b8877f4a967a2270c38a3f99cd769f4b613845234a42170a1b2d3f3",
      "transactionType": "CREATE",
      "contractName": "Drainer",
      "contractAddress": "0xce6884449c2e77ae05044e648a8c9f3365387e72",
      "function": null,
      "arguments": [
        "0x927cB8C07E4b803DF893Bf4c8f13927E39402D8A"
      ],
      "transaction": {
        "from": "0x635cd35e832666bcf9932a7d95e894d7f4e900c0",
        "gas": "0x32a87",
        "value": "0x71afd498d0000",
        "input": "0x60806040526040516101de3803806101de8339818101604052602081101561002657600080fd5b5051600080546001600160a01b039092166001600160a01b0319909216919091179055610186806100586000396000f3fe60806040526004361061002d5760003560e01c80632d33ece7146100415780633a9e9f77146100565761003c565b3661003c5761003a610080565b005b600080fd5b34801561004d57600080fd5b5061003a610080565b34801561006257600080fd5b5061003a6004803603602081101561007957600080fd5b50356100e5565b6000805460015460408051632e1a7d4d60e01b81526004810192909252516001600160a01b0390921692632e1a7d4d9260248084019382900301818387803b1580156100cb57600080fd5b505af11580156100df573d6000803e3d6000fd5b50505050565b600080546040805162362a9560e01b81526001600160a01b03909216600483018190529051909262362a959285926024808301939282900301818588803b15801561012f57600080fd5b505af1158015610143573d6000803e3d6000fd5b505050600192909255505056fea264697066735822122084458c37ed0299ed5bcbe1371baffcec6e0b98b5e649ba8a6308eeb21fb63fb964736f6c63430006020033000000000000000000000000927cb8c07e4b803df893bf4c8f13927e39402d8a",
        "nonce": "0x8d",
        "chainId": "0xaa36a7"
      },
      "additionalContracts": [],
      "isFixedGasLimit": false
    },
    {
      "hash": "0xc8d67f6a810c53433369fb96479d91fe7d67e2c466fc0f6bb675e73227e89cad",
      "transactionType": "CALL",
      "contractName": "Drainer",
      "contractAddress": "0xce6884449c2e77ae05044e648a8c9f3365387e72",
      "function": "donateToInstance(uint256)",
      "arguments": [
        "1000000000000000"
      ],
      "transaction": {
        "from": "0x635cd35e832666bcf9932a7d95e894d7f4e900c0",
        "to": "0xce6884449c2e77ae05044e648a8c9f3365387e72",
        "gas": "0x19a27",
        "value": "0x0",
        "input": "0x3a9e9f7700000000000000000000000000000000000000000000000000038d7ea4c68000",
        "nonce": "0x8e",
        "chainId": "0xaa36a7"
      },
      "additionalContracts": [],
      "isFixedGasLimit": false
    },
    {
      "hash": "0x64f79783d2a7d691c6e9ab92debc299ca653e8de048111f73c379802364f4f76",
      "transactionType": "CALL",
      "contractName": "Drainer",
      "contractAddress": "0xce6884449c2e77ae05044e648a8c9f3365387e72",
      "function": "withdrawFromInstance()",
      "arguments": [],
      "transaction": {
        "from": "0x635cd35e832666bcf9932a7d95e894d7f4e900c0",
        "to": "0xce6884449c2e77ae05044e648a8c9f3365387e72",
        "gas": "0x8981",
        "value": "0x0",
        "input": "0x2d33ece7",
        "nonce": "0x8f",
        "chainId": "0xaa36a7"
      },
      "additionalContracts": [],
      "isFixedGasLimit": false
    }
  ],
  "receipts": [
    {
      "status": "0x1",
      "cumulativeGasUsed": "0xa093c9",
      "logs": [],
      "logsBloom": "0x00000000000000000000000000000000000000000000000000000000000000000000000000000000000000000000000000000000000000000000000000000000000000000000000000000000000000000000000000000000000000000000000000000000000000000000000000000000000000000000000000000000000000000000000000000000000000000000000000000000000000000000000000000000000000000000000000000000000000000000000000000000000000000000000000000000000000000000000000000000000000000000000000000000000000000000000000000000000000000000000000000000000000000000000000000000",
      "type": "0x2",
      "transactionHash": "0xa1f3132d4b8877f4a967a2270c38a3f99cd769f4b613845234a42170a1b2d3f3",
      "transactionIndex": "0x66",
      "blockHash": "0x24a7be49781877fbf311d61b88c408eda7d397164b049d7cb388fb5b120a32c5",
      "blockNumber": "0x5ca50c",
      "gasUsed": "0x274b0",
      "effectiveGasPrice": "0xa3e2f9",
      "from": "0x635cd35e832666bcf9932a7d95e894d7f4e900c0",
      "to": null,
      "contractAddress": "0xce6884449c2e77ae05044e648a8c9f3365387e72"
    },
    {
      "status": "0x1",
      "cumulativeGasUsed": "0xa1c3ac",
      "logs": [],
      "logsBloom": "0x00000000000000000000000000000000000000000000000000000000000000000000000000000000000000000000000000000000000000000000000000000000000000000000000000000000000000000000000000000000000000000000000000000000000000000000000000000000000000000000000000000000000000000000000000000000000000000000000000000000000000000000000000000000000000000000000000000000000000000000000000000000000000000000000000000000000000000000000000000000000000000000000000000000000000000000000000000000000000000000000000000000000000000000000000000000",
      "type": "0x2",
      "transactionHash": "0xc8d67f6a810c53433369fb96479d91fe7d67e2c466fc0f6bb675e73227e89cad",
      "transactionIndex": "0x67",
      "blockHash": "0x24a7be49781877fbf311d61b88c408eda7d397164b049d7cb388fb5b120a32c5",
      "blockNumber": "0x5ca50c",
      "gasUsed": "0x12fe3",
      "effectiveGasPrice": "0xa3e2f9",
      "from": "0x635cd35e832666bcf9932a7d95e894d7f4e900c0",
      "to": "0xce6884449c2e77ae05044e648a8c9f3365387e72",
      "contractAddress": null
    },
    {
      "status": "0x1",
      "cumulativeGasUsed": "0xa23b8a",
      "logs": [],
      "logsBloom": "0x00000000000000000000000000000000000000000000000000000000000000000000000000000000000000000000000000000000000000000000000000000000000000000000000000000000000000000000000000000000000000000000000000000000000000000000000000000000000000000000000000000000000000000000000000000000000000000000000000000000000000000000000000000000000000000000000000000000000000000000000000000000000000000000000000000000000000000000000000000000000000000000000000000000000000000000000000000000000000000000000000000000000000000000000000000000",
      "type": "0x2",
      "transactionHash": "0x64f79783d2a7d691c6e9ab92debc299ca653e8de048111f73c379802364f4f76",
      "transactionIndex": "0x68",
      "blockHash": "0x24a7be49781877fbf311d61b88c408eda7d397164b049d7cb388fb5b120a32c5",
      "blockNumber": "0x5ca50c",
      "gasUsed": "0x77de",
      "effectiveGasPrice": "0xa3e2f9",
      "from": "0x635cd35e832666bcf9932a7d95e894d7f4e900c0",
      "to": "0xce6884449c2e77ae05044e648a8c9f3365387e72",
      "contractAddress": null
    }
  ],
  "libraries": [],
  "pending": [],
  "returns": {},
  "timestamp": 1717935373,
  "chain": 11155111,
  "commit": "b49a339"
}