{
  "transactions": [
    {
      "hash": "0x648db4058e8a058b53547b55339c1035076a5a047dc433d6f018e65905b9ebba",
      "transactionType": "CREATE",
      "contractName": "Drainer",
      "contractAddress": "0x889cda462257b1e31a97934dedc598b77946a4b7",
      "function": null,
      "arguments": [
        "0x927cB8C07E4b803DF893Bf4c8f13927E39402D8A"
      ],
      "transaction": {
        "from": "0x635cd35e832666bcf9932a7d95e894d7f4e900c0",
        "gas": "0x33aec",
        "value": "0x71afd498d0000",
        "input": "0x60806040526040516101ed3803806101ed8339818101604052602081101561002657600080fd5b5051600080546001600160a01b039092166001600160a01b0319909216919091179055610195806100586000396000f3fe60806040526004361061002d5760003560e01c80633a9e9f771461004257806360e4c5251461006c5761003d565b3661003d5761003b34610092565b005b600080fd5b34801561004e57600080fd5b5061003b6004803603602081101561006557600080fd5b50356100f5565b34801561007857600080fd5b5061003b6004803603602081101561008f57600080fd5b50355b6000805460408051632e1a7d4d60e01b81526004810185905290516001600160a01b0390921692632e1a7d4d9260248084019382900301818387803b1580156100da57600080fd5b505af11580156100ee573d6000803e3d6000fd5b5050505050565b600080546040805162362a9560e01b815230600482015290516001600160a01b039092169262362a95928592602480820193929182900301818588803b15801561013e57600080fd5b505af1158015610152573d6000803e3d6000fd5b505050600192909255505056fea26469706673582212203089609f3b6d068c535afde4677e4e397ba2d159bc3f1668556768e93450db5064736f6c63430006020033000000000000000000000000927cb8c07e4b803df893bf4c8f13927e39402d8a",
        "nonce": "0x90",
        "chainId": "0xaa36a7"
      },
      "additionalContracts": [],
      "isFixedGasLimit": false
    },
    {
      "hash": "0x90afc9a3de2b81dc06731c6bbf5f4b76cf5ee50ae2c68bedb16dfba081cab610",
      "transactionType": "CALL",
      "contractName": "Drainer",
      "contractAddress": "0x889cda462257b1e31a97934dedc598b77946a4b7",
      "function": "donateToInstance(uint256)",
      "arguments": [
        "1000000000000000"
      ],
      "transaction": {
        "from": "0x635cd35e832666bcf9932a7d95e894d7f4e900c0",
        "to": "0x889cda462257b1e31a97934dedc598b77946a4b7",
        "gas": "0x19a02",
        "value": "0x0",
        "input": "0x3a9e9f7700000000000000000000000000000000000000000000000000038d7ea4c68000",
        "nonce": "0x91",
        "chainId": "0xaa36a7"
      },
      "additionalContracts": [],
      "isFixedGasLimit": false
    },
    {
      "hash": "0x58af578ea5d3d6d9fb2aeb019f5d3d5298a146516a91c72ba19fec8a1c44f023",
      "transactionType": "CALL",
      "contractName": "Drainer",
      "contractAddress": "0x889cda462257b1e31a97934dedc598b77946a4b7",
      "function": "withdrawFromInstance(uint256)",
      "arguments": [
        "100000000000000"
      ],
      "transaction": {
        "from": "0x635cd35e832666bcf9932a7d95e894d7f4e900c0",
        "to": "0x889cda462257b1e31a97934dedc598b77946a4b7",
        "gas": "0x8e114",
        "value": "0x0",
        "input": "0x60e4c52500000000000000000000000000000000000000000000000000005af3107a4000",
        "nonce": "0x92",
        "chainId": "0xaa36a7"
      },
      "additionalContracts": [],
      "isFixedGasLimit": false
    }
  ],
  "receipts": [
    {
      "status": "0x1",
      "cumulativeGasUsed": "0x5cae6a",
      "logs": [],
      "logsBloom": "0x00000000000000000000000000000000000000000000000000000000000000000000000000000000000000000000000000000000000000000000000000000000000000000000000000000000000000000000000000000000000000000000000000000000000000000000000000000000000000000000000000000000000000000000000000000000000000000000000000000000000000000000000000000000000000000000000000000000000000000000000000000000000000000000000000000000000000000000000000000000000000000000000000000000000000000000000000000000000000000000000000000000000000000000000000000000",
      "type": "0x2",
      "transactionHash": "0x648db4058e8a058b53547b55339c1035076a5a047dc433d6f018e65905b9ebba",
      "transactionIndex": "0x2f",
      "blockHash": "0xb9600b85fe7c051df2b76895688564744491d9db00804d4eace253c238d63a72",
      "blockNumber": "0x5ca529",
      "gasUsed": "0x2814e",
      "effectiveGasPrice": "0x1063c5c4",
      "from": "0x635cd35e832666bcf9932a7d95e894d7f4e900c0",
      "to": null,
      "contractAddress": "0x889cda462257b1e31a97934dedc598b77946a4b7"
    },
    {
      "status": "0x1",
      "cumulativeGasUsed": "0x5dde33",
      "logs": [],
      "logsBloom": "0x00000000000000000000000000000000000000000000000000000000000000000000000000000000000000000000000000000000000000000000000000000000000000000000000000000000000000000000000000000000000000000000000000000000000000000000000000000000000000000000000000000000000000000000000000000000000000000000000000000000000000000000000000000000000000000000000000000000000000000000000000000000000000000000000000000000000000000000000000000000000000000000000000000000000000000000000000000000000000000000000000000000000000000000000000000000",
      "type": "0x2",
      "transactionHash": "0x90afc9a3de2b81dc06731c6bbf5f4b76cf5ee50ae2c68bedb16dfba081cab610",
      "transactionIndex": "0x30",
      "blockHash": "0xb9600b85fe7c051df2b76895688564744491d9db00804d4eace253c238d63a72",
      "blockNumber": "0x5ca529",
      "gasUsed": "0x12fc9",
      "effectiveGasPrice": "0x1063c5c4",
      "from": "0x635cd35e832666bcf9932a7d95e894d7f4e900c0",
      "to": "0x889cda462257b1e31a97934dedc598b77946a4b7",
      "contractAddress": null
    },
    {
      "status": "0x1",
      "cumulativeGasUsed": "0x6232c3",
      "logs": [],
      "logsBloom": "0x00000000000000000000000000000000000000000000000000000000000000000000000000000000000000000000000000000000000000000000000000000000000000000000000000000000000000000000000000000000000000000000000000000000000000000000000000000000000000000000000000000000000000000000000000000000000000000000000000000000000000000000000000000000000000000000000000000000000000000000000000000000000000000000000000000000000000000000000000000000000000000000000000000000000000000000000000000000000000000000000000000000000000000000000000000000",
      "type": "0x2",
      "transactionHash": "0x58af578ea5d3d6d9fb2aeb019f5d3d5298a146516a91c72ba19fec8a1c44f023",
      "transactionIndex": "0x31",
      "blockHash": "0xb9600b85fe7c051df2b76895688564744491d9db00804d4eace253c238d63a72",
      "blockNumber": "0x5ca529",
      "gasUsed": "0x45490",
      "effectiveGasPrice": "0x1063c5c4",
      "from": "0x635cd35e832666bcf9932a7d95e894d7f4e900c0",
      "to": "0x889cda462257b1e31a97934dedc598b77946a4b7",
      "contractAddress": null
    }
  ],
  "libraries": [],
  "pending": [],
  "returns": {},
  "timestamp": 1717935781,
  "chain": 11155111,
  "commit": "b49a339"
}